:100000000C943F000C9473000C9473000C947300D8
:100010000C9473000C9473000C9473000C94730094
:100020000C9473000C9473000C9473000C94730084
:100030000C9473000C9473000C9473000C942F02B6
:100040000C9473000C9473000C9473000C94730064
:100050000C9473000C9473000C9473000C94730054
:100060000C9473000C9473000C9473000C94650250
:100070000C945E020C946C020C947300B80411246E
:100080001FBECFEFCDBFDFE3DEBF80914000809386
:100090004000811105C098ED21E094BF20934100FC
:1000A0008CBB18E3A0E0B8E3E0E1FAE002C0059001
:1000B0000D92A230B107D9F728E3A2E0B8E301C05E
:1000C0001D92A33BB207E1F710E0CFE3D0E004C0FC
:1000D0002197FE010E94CF04CE33D107C9F70E94B9
:1000E000E7020C94D5040C940000AF92BF92CF921B
:1000F000DF92EF92FF920F931F93CF93DF936C01E8
:100100007B018B01040F151FEB015E01AE18BF08C8
:10011000C017D10759F06991D601ED91FC9101907A
:10012000F081E02DC6010995892B79F7C501DF9192
:10013000CF911F910F91FF90EF90DF90CF90BF90E4
:10014000AF900895FC0157854089252F30E0842F1A
:1001500090E0821B930B541710F0CF9608950197EF
:100160000895FC0195858685981761F0A685AE0FE8
:10017000BF2FB11D51968C9196859F5F9F73968777
:1001800090E008958FEF9FEF0895FC019585868597
:10019000981731F08685E80FF11D818990E0089568
:1001A0008FEF9FEF0895FC0195852685892F90E0BC
:1001B000805C9F4F821B91098F7399270895DC0102
:1001C0000FB607FE04C0809111018823B9F018967C
:1001D000ED91FC911997848185FF10C01F969C9129
:1001E0001F9750968C91981304C085818F7D8583CD
:1001F0000895EAE0F8E3E8940C947A0208950F93E6
:100200001F93CF93DF93EC018C8581608C879F8552
:10021000888998130BC0E885F985848185FF06C01D
:100220008C8581FD0EC080E4848313C0062F1F855A
:100230001F5F1F738889811316C0CE010E94DF00E3
:10024000F9CF85818F77806490E49483E885F98580
:100250008583E885F985628381E090E0DF91CF9125
:100260001F910F910895EF85EC0FFD2FF11DEF5AAF
:10027000FF4F00831F878C85E885F98581FF09C0C2
:1002800085818F77806690E49483E885F9858583FE
:10029000E3CF85818062FBCFCF93DF93EC018C8528
:1002A00080FF0CC0E885F985858185FD03C08481C8
:1002B00086FD04C0CE010E94DF00F4CFDF91CF9114
:1002C00008954F715527E2E0F8E38F7174E0879F3E
:1002D000C00111246370682B60686083822F8F7760
:1002E0008183DA01C90167E0B695A795979587954F
:1002F0006A95D1F78F7782837EE05695479537953B
:1003000027957A95D1F723830895CF93DF93282FEC
:1003100030E0E901C250D64788818F3F71F1A901D1
:1003200044515647DA01EC91B0E2EB9FF001112401
:10033000FC5F611125C0868390818923A1F4C901E6
:1003400086529647DC019C913097E1F09830D0F4CA
:100350007096E90FF11D9FB7F8948081611115C067
:10036000877F80839FBF28533647F9018081882388
:1003700021F0803161F0883FE1F0DF91CF91089565
:100380008583DACFF0E0E0E0E6CF8860EACF8881CD
:10039000DA019C91913059F4853010F0880F8295E4
:1003A0009091010A809589238093010AE6CF880FF6
:1003B000F7CF1092A006E1CFCF93DF9361E089E001
:1003C0000E94850161E085E00E948501C2E0D8E3DA
:1003D00068818AE098E30E94FF0069818AE098E3DF
:1003E0000E94FF006A818AE098E30E94FF006B810F
:1003F0008AE098E30E94FF008AE098E30E944C01A3
:1004000060E089E00E94850160E085E0DF91CF91A6
:100410000C9485018231F0F490E0FC01E250F64743
:1004200020812F3FB9F0FC01E451F647E08130E232
:10043000E39FF0011124FC5F60FF0DC02183865211
:100440009647DC018C91E80FF11D808961FF05C0A2
:100450008860808B08952283F2CF877FFACF8F93B5
:1004600081E080938D0A8FB78F93EF93FF93E9EA32
:10047000F8E39F9368948FEF0DC0E8948481958191
:10048000805D9C4F84839583885E934080F0848355
:1004900095838FEF9081981B919390819F4F9193BB
:1004A00090819F4F919390819F4F919336F39F91AD
:1004B000FF91EF918F918FBF8F911895EF93FF93DD
:1004C000F898EAE0F8E30C947202EF93FF93F8983F
:1004D000EAE0F8E30C94A102EF93FF93EAE0F8E37B
:1004E0000C94CE022F932FB72F938F939F93AF939C
:1004F000BF936894CF93DF9320E0C085D8E09089C4
:10050000DF01A90FB21FAF5ABF4F8C9120E42C839B
:100510008A839F5F9F738D812785291302C08F7DFA
:100520008D83908BDF91CF9116F00C94FE00BF91DC
:10053000AF919F918F912F912FBF2F91FF91EF91AD
:1005400018952F932FB72F933F938F939F93CF930C
:10055000DF93C085D8E0898198818674880F3485BF
:10056000382B82FD0DC0C58581E08C0F8F732685E9
:10057000281791F0CE0FDF2F20E0D21F998B8587AF
:100580003487DF91CF919F918F913F912F912FBF12
:100590002F91FF91EF9118953064F2CF8F938FB721
:1005A0008F939F93CF93DF93C085D8E09D818881FF
:1005B0008C8187FDFCCF9F7B90689D83DF91CF91DD
:1005C0009F918F918FBF8F91FF91EF91189588ED3B
:1005D00090E084BF90936100E0E0F6E083E58283E1
:1005E0008DE0858380E2838381E080831092020224
:1005F0008093030A9EEF9093260A9093270A9BE02C
:100600009093000AE0E8FAE02DEF31E026A737A743
:10061000118290E89283848781E18083789461E0FD
:100620008DE00E940A0261E080E10E940A0260E01F
:100630008EE00E940A0261E089E00E940A0260E006
:1006400089E00E94850161E085E00E940A0260E085
:1006500085E00E9485018AE098E30E94DF00809196
:10066000163880FF12C08AE098E30E944C01E091A6
:100670001238F09113381682158280EC84838091B1
:1006800018388093173810921638FFB6F894E09116
:100690001238F0911338168283E0878380E590E06A
:1006A00080879187148680E8858382EC8683909189
:1006B0001538C091143880910102992309F40AC1B8
:1006C000816080930102C90FDD27DD1FCC0FDD1F84
:1006D000CC0FDD1FC054D64761E088810E940A021A
:1006E00062E089810E940A02FFBE61E08DE00E9403
:1006F000850160E080E10E948501B2E0CB2EDD241F
:10070000D394C3E0BC2ED1E2ED2ED0E8FD2E8AE0DA
:1007100098E30E94D300181619060CF05FC08AE017
:1007200098E30E94B100982F80910938813009F434
:10073000DAC008F4D1C0823009F4DFC0833039F761
:1007400097FDD8C0C09108384C2F4F7750E0559591
:10075000479555954795242F4093A838C370C0936B
:10076000A7384091063850E070E060E0E7E0440FC1
:10077000551F661F771FEA95D1F780910738482BE0
:10078000892F90E0B0E0A0E0FEE0880F991FAA1F3B
:10079000BB1FFA95D1F7842B952BA62BB72B8093F3
:1007A000A3389093A438A093A538B093A63810929C
:1007B0000938243109F0A8C0C13081F420919F3854
:1007C0003091A0384091A1385091A23861E084E185
:1007D0000E9461010E94DC01C093003880910038C2
:1007E000882309F4A8C060E08DE00E94850161E0E3
:1007F0008EE00E940A02CFE0D0E0B7010C2E02C0CA
:10080000769567950A94E2F761708EE00E94850103
:1008100061E080E10E94850160E080E10E94850145
:10082000219758F760E08EE00E940A0260E08EE0B7
:100830000E940A0250E1A52ED0E0C0E0CC0FDD1FDF
:1008400061E080E10E94850160E080E10E94850115
:100850008091080481FB002700F910E0C02BD12B08
:10086000AA94A110EBCF61E08DE00E948501DF77B3
:10087000CE01B0E0A0E026E0880F991FAA1FBB1FA1
:100880002A95D1F7CD2FDD27C695AE0170E060E047
:100890008C2B952BA62BB72B80939F389093A03849
:1008A000A093A138B093A2382FB7F8948091AD38B7
:1008B0009091AE38A091AF38B091B0382FBF8093EF
:1008C0009B3890939C38A0939D38B0939E3810929B
:1008D00000381DCF8E7FF5CE97FF19CF9093083843
:1008E000D092093814CF97FD05C090930738C09275
:1008F00009380DCF109209380ACF97FDFBCF90939E
:100900000638B092093803CF233109F067CFC230DF
:1009100009F064CF20919F383091A0384091A138E0
:100920005091A23862E084E10E9461010E94DC01E2
:10093000D092003853CF2FB7F8948091AD38909172
:10094000AE38A091AF38B091B0382FBF40919B38EE
:1009500050919C3860919D3870919E38841B950B06
:10096000A60BB70B4497A105B10508F03CCFCFCE3D
:10097000EAE0F8E31282138288EE93E0A0E0B0E0B0
:1009800084839583A683B78382EB99E880839183E0
:1009900080E098E080879187128613860895EE0F95
:0E09A000FF1F0590F491E02D0994F894FFCF0D
:1009AE0000000000FF007500A2004C01D300B10052
:1009BE00C500070608090E0F10001010F800000001
:1009CE0000101010000000000000100004050607C3
:1009DE0005040302010000010203010203000000EE
:1009EE0000000101010101010202020200000000EB
:1009FE0010204080201008040201010204080204A5
:020A0E000801DD
:020A10000100E3
:00000001FF
