:100000000C943F000C9468000C9468000C946800F9
:100010000C9468000C9468000C9468000C946800C0
:100020000C9468000C9468000C9468000C946800B0
:100030000C9468000C9468000C9468000C94E8021E
:100040000C9468000C9468000C9468000C94680090
:100050000C9468000C9468000C9468000C94680080
:100060000C9468000C9468000C9468000C942903AC
:100070000C9422030C9430030C946800AB031124FD
:100080001FBECFEFCDBFDFE3DEBF80914000809386
:100090004000811105C098ED21E094BF20934100FC
:1000A0008CBB28E3A0E0B8E301C01D92A33BB207DC
:1000B000E1F710E0CFE3D0E004C02197FE010E94F9
:1000C0005A05CE33D107C9F70E9400040C9460058D
:1000D0000C9400000000809324088091230887FF7F
:1000E000FCCF809124080895AF92BF92CF92DF9207
:1000F000EF92FF920F931F93CF93DF936C017B01DD
:100100008B01040F151FEB015E01AE18BF08C0176D
:10011000D10759F06991D601ED91FC910190F081E0
:10012000E02DC6010995892B79F7C501DF91CF91A3
:100130001F910F91FF90EF90DF90CF90BF90AF9005
:100140000895FC0157854089252F30E0842F90E0E9
:10015000821B930B541710F0CF96089501970895C2
:10016000FC0195858685981761F0A685AE0FBF2F97
:10017000B11D51968C9196859F5F9F73968790E0F5
:1001800008958FEF9FEF0895FC0195858685981758
:1001900031F08685E80FF11D818990E008958FEF99
:1001A0009FEF0895FC0195852685892F90E0805C5E
:1001B0009F4F821B91098F7399270895DC010FB619
:1001C00007FE04C0809111018823B9F01896ED91C3
:1001D000FC911997848185FF10C01F969C911F97F1
:1001E00050968C91981304C085818F7D85830895E6
:1001F000E3E1F8E3E8940C943E0308950F931F9312
:10020000CF93DF93EC018C8581608C879F858889F3
:1002100098130BC0E885F985848185FF06C08C851D
:1002200081FD0EC080E4848313C0062F1F851F5FED
:100230001F738889811316C0CE010E94DE00F9CF9A
:1002400085818F77806490E49483E885F985858340
:10025000E885F985628381E090E0DF91CF911F917D
:100260000F910895EF85EC0FFD2FF11DEF5AFF4F11
:1002700000831F878C85E885F98581FF09C085810A
:100280008F77806690E49483E885F9858583E3CF52
:1002900085818062FBCFCF93DF93EC018C8588232F
:1002A00061F0E885F985858185FD03C0848186FD3F
:1002B00004C0CE010E94DE00F4CFDF91CF910895FB
:1002C0004F715527E0E0F8E38F7174E0879FC0011C
:1002D00011246370682B60686083822F8F7781831D
:1002E000DA01C90167E0B695A795979587956A9554
:1002F000D1F78F7782837EE056954795379527957E
:100300007A95D1F723830895CF93DF93282F30E098
:10031000E901CE5FD44788818F3F71F1A901405137
:100320005547DA01EC91B0E2EB9FF0011124FC5F3C
:10033000611125C0868390818923A1F4C90182526D
:100340009547DC019C913097E1F09830D0F470969D
:10035000E90FF11D9FB7F8948081611115C0877F67
:1003600080839FBF24533547F9018081882321F082
:10037000803161F08038E1F0DF91CF91089585837D
:10038000DACFF0E0E0E0E6CF8860EACF8881DA01FA
:100390009C91913059F4853010F0880F829590919E
:1003A000010A809589238093010AE6CF880FF7CF51
:1003B0001092A006E1CF8F929F92AF92BF92CF9200
:1003C000DF92EF92FF920F931F93CF93DF9300D0B2
:1003D0001F92CDB7DEB78C014B015A019091B13815
:1003E0008091B2382091AC38222321F02FB720938E
:1003F000AD38F89421E02093AE3890932008809394
:10040000210860E08DE00E9484018091200886FD33
:1004100087C080EA0E946A0083E00E946A0080E050
:100420000E946A00F82E80E00E946A00D82E80E0C8
:100430000E946A00E82E80E00E946A00C82E809127
:10044000AE38882349F01092AE388091AC388823BA
:1004500019F08091AD388FBF61E08DE00E9484017A
:10046000F982DA82EB82FE0131969E012C5F3F4FCA
:1004700080E047E09191892798E0582F880F57FD39
:1004800084279150D1F72E173F07A1F791E0C812AA
:1004900090E0F401908391E08E2D877009F090E058
:1004A000F50190838F2D90E0B0E0A0E02DE0880F63
:1004B000991FAA1FBB1F2A95D1F74D2D50E070E060
:1004C00060E035E0440F551F661F771F3A95D1F75E
:1004D000842B952BA62BB72B4E2D50E070E060E0BF
:1004E000E3E07695679557954795EA95D1F7842B84
:1004F000952BA62BB72BF80180839183A283B3831E
:100500002396CDBFDEBFDF91CF911F910F91FF905A
:10051000EF90DF90CF90BF90AF909F908F90089515
:1005200083E00E946A0080EA78CFCF93DF9361E096
:1005300089E00E94840161E085E00E948401C0E0BE
:10054000D8E3688183E198E30E94FE00698183E13A
:1005500098E30E94FE006A8183E198E30E94FE0016
:100560006B8183E198E30E94FE0083E198E30E949F
:100570004B0160E089E00E94840160E085E0DF914A
:10058000CF910C9484018231F0F490E0FC01EE5F95
:10059000F44720812F3FB9F0FC01E051F547E0819D
:1005A00030E2E39FF0011124FC5F613069F42183A4
:1005B00082529547DC018C91E80FF11D80896130F2
:1005C00029F08860808B08952283F2CF877FFACF4D
:1005D000EF93FF93E9E0F8E38F938FB78F939F93A7
:1005E0007F9370E080819181805D9C4F80839183B7
:1005F000885E934018F0808391837F5F9281970F8C
:10060000928380E09381981F93839481981F9483B1
:100610009581981F958396819F5F968397819F4FC1
:10062000978390859F4F908791859F4F918781E019
:1006300080938D0A7F919F918F918FBF8F91FF91B2
:10064000EF911895EF93FF93F898E3E1F8E30C949A
:100650003603EF93FF93F898E3E1F8E30C94650316
:10066000EF93FF93E3E1F8E30C9492032F932FB7FA
:100670002F938F939F93AF93BF936894CF93DF9300
:1006800020E0C085D8E09089DF01A90FB21FAF5AE2
:10069000BF4F8C9120E42C838A839F5F9F738D8151
:1006A0002785291302C08F7D8D83908BDF91CF9199
:1006B00016F00C94FD00BF91AF919F918F912F91F7
:1006C0002FBF2F91FF91EF9118952F932FB72F9355
:1006D0003F938F939F93CF93DF93C085D8E0898119
:1006E00098818674880F3485382B82FD0DC0C585AE
:1006F00081E08C0F8F732685281791F0CE0FDF2FA6
:1007000020E0D21F998B85873487DF91CF919F910D
:100710008F913F912F912FBF2F91FF91EF911895BE
:100720003064F2CF8F938FB78F939F93CF93DF93E4
:10073000C085D8E09D8188818C8187FDFCCF9F7B1F
:1007400090689D83DF91CF919F918F918FBF8F9103
:10075000FF91EF911895109215381092163888EE87
:1007600093E0A0E0B0E08093173890931838A093FE
:100770001938B0931A3888E19BE880931338909326
:10078000143880E098E080931B3890931C381092C6
:100790001D3810921E3840E856E968E970E080E0A4
:1007A0008F5F863011F487E00BC07695679557957B
:1007B0004795413099E059079DE36907710580F736
:1007C00094E09093B038982F9095292F217030E0C5
:1007D00094E0220F331F9A95E1F78162822B809378
:1007E000AF3880E298E08093A4389093A5381092B7
:1007F000AB3887E08093B23881E38093B1380895B5
:10080000CF93DF93CDB7DEB72697CDBFDEBF88EDA0
:1008100090E084BF90936100E0E0F6E083E582839E
:100820008DE0858380E2838381E0808310920202E1
:100830008093030A9EEF9093260A9093270A9BE0E9
:100840009093000AE0E8FAE02DEF31E026A737A701
:10085000118290E89283848781E18083789461E0BB
:1008600089E00E94C30260E089E00E94840161E0A7
:100870008DE00E94C30261E08DE00E94840161E08E
:1008800085E00E94C30260E085E00E9484018091BF
:100890001F3880FF12C083E198E30E944B01E09172
:1008A0001B38F0911C381682158280EC848380916D
:1008B00021388093203810921F38FFB6F894E091C9
:1008C0001B38F0911C38168283E0878380E590E026
:1008D00080879187148680E8858382EC8683909157
:1008E0001E3800911D3880910102992309F497C0A8
:1008F000816080930102090F1127111F000F111F42
:10090000000F111F0C53154761E0F80180810E9410
:10091000C30262E0F80181810E94C302FFBE8091A0
:10092000AB3881110AC01092AC381092AE3880E812
:100930008093AD3881E08093AB38809101028B7F4A
:100940009091AA38892B8093010291116AC061E0CD
:100950008EE00E94C30261E080E10E94C3028091A8
:10096000210884608093210880912008816280930F
:1009700020089091AF388091B038909320088093F0
:10098000210812E001E083E0F82E83E198E30E9461
:10099000D200181619060CF087C083E198E30E9474
:1009A000B00090910738913009F44CC008F443C06E
:1009B000923009F451C0933041F787FD4AC08091CD
:1009C0000638982F9F7796959695837010920738E2
:1009D000933011F09F3111F480930838923009F070
:1009E00042C0823009F03FC019821A821B821C82E9
:1009F0001E821D82AE014B5F5F4FBE016A5F7F4F5B
:100A0000CE0101960E94DB0129813A814B815C81F4
:100A100062E083E00E9460010E949502B6CF8E7F63
:100A200068CF943009F09BCF61E08CE00E94C30254
:100A300061E08AE092CF87FFA8CF809306380093C9
:100A40000738A3CF87FD05C080930538109307387A
:100A50009CCF1092073899CF87FDFBCF8093043845
:100A6000F092073892CF809108388130E9F41982EA
:100A70001A821B821C821E821D82AE014B5F5F4F59
:100A8000BE016A5F7F4FCE0101960E94DB01298182
:100A90003A814B815C8160E083E00E9460010E94AA
:100AA00095021092083871CF80910838813009F092
:100AB0006CCFDDCFEE0FFF1F0590F491E02D099470
:040AC000F894FFCFD8
:100AC400070608090E0F1000101080000000001027
:100AD40010100000000000001000040506070504C3
:100AE40003020100000102030102030000000000F0
:100AF40001010101010102020202000000001020B4
:100B040040802010080402010102040802040801C4
:100B140000000000FE007400A1004B01D200B000F0
:020B2400C4000B
:00000001FF
